:100000000C9457000C947F000C947F000C947F009C
:100010000C947F000C947F000C947F000C947F0064
:100020000C947F000C947F000C947F000C94650A64
:100030000C947F000C947F000C947F000C947F0044
:100040000C9461020C947F000C94AB020C94D702C8
:100050000C947F000C947F000C947F000C947F0024
:100060000C947F000C947F001112131415160A0BC8
:100070000C0D0E0F000102030405810089002C0401
:1000800034043C04C6045B06E709EF09D40A2C0BD0
:10009000900C4C0F85009100300438044404CE04C9
:1000A0005F06EB09F309E20A300B940C590F112497
:1000B0001FBECFEFD8E0DEBFCDBF11E0A0E0B1E0C2
:1000C000E8EFF5E202C005900D92A436B107D9F72A
:1000D00021E0A4E6B1E001C01D92AD3EB207E1F718
:1000E00010E0CAE4D0E004C02197FE010E94AF0FE7
:1000F000CD33D107C9F70E94F70C0C94EF120C9482
:10010000000084E691E00C94990084E691E00C9460
:100110009A008BE691E00E94990086E691E00C94AB
:10012000010386E691E00E9402038BE691E00C94C5
:100130009A0008950895789414BC15BC84B5826023
:1001400084BD84B5816084BD85B5826085BD85B57B
:10015000816085BDEEE6F0E0808181608083A0E86B
:10016000B0E01C92E1E8F0E0108280818260808340
:100170008081816080838C9181608C93E0EBF0E0E2
:100180001082A1EBB0E01C928C9184608C938081F2
:1001900081608083EAE7F0E08081816080838081F4
:1001A0008260808380818460808380818068808396
:1001B0000895662339F0613041F0623049F08FEFE5
:1001C00090E008958AE290E0089584E290E0089536
:1001D00087E290E00895662339F0613041F06230A3
:1001E00049F08FEF90E008958BE290E0089585E26A
:1001F00090E0089588E290E00895662339F0613038
:1002000041F0623049F08FEF90E0089589E290E08C
:10021000089583E290E0089586E290E008956830C2
:1002200068F088EF860F863028F06E50663020F038
:100230008FEF089581E0089582E0089580E00895A9
:10024000683028F088EF860F863038F4682F81E018
:1002500001C0880F6A95EAF7089582EF860F86300D
:10026000A8F38FEF0895633081F0653081F0663038
:1002700081F0693081F06A3021F06B3021F08FEF2E
:10028000089584E0089585E0089586E0089582E069
:10029000089581E0089583E00895DF92EF92FF9240
:1002A0000F931F93CF93DF937C01D62FD42E0E9400
:1002B0002001C82F6D2FC7010E940F01D82F8F3F3B
:1002C000F1F0682FC7010E94D9008C016D2FC70182
:1002D0000E94EB00FC012FB7F894D11008C0D801A0
:1002E0009C91C0959C239C938081C82306C0B1E05B
:1002F000DB1204C0F8018081C82BC0832FBFDF91BF
:10030000CF911F910F91FF90EF90DF900895633090
:1003100099F028F4613049F0623051F00895653069
:10032000A9F070F06630B1F0089584B58F7702C0FF
:1003300084B58F7D84BD0895809180008F7703C040
:10034000809180008F7D8093800008958091B0001F
:100350008F7703C08091B0008F7D8093B0000895A7
:10036000EF92FF920F931F93CF93DF93EC01062F31
:10037000E42E0E942001182F602FCE010E940F0151
:10038000F82E8FEFF816D1F0602FCE010E943301C6
:100390008F3F21F0682FCE010E9487016F2DCE0183
:1003A0000E94EB00FC019FB7F8948081E11003C02C
:1003B0001095182301C0182B10839FBFDF91CF9198
:1003C0001F910F91FF90EF900895FF920F931F934D
:1003D000CF93DF938C01F62EEA0141E00E944D019C
:1003E000209711F440E004C0CF3FD10551F441E023
:1003F0006F2DC801DF91CF911F910F91FF900C9449
:10040000B0016F2DC8010E9433018330E1F048F440
:100410008130A1F0823099F584B5806284BDC8BD79
:1004200033C0853021F1C8F0863049F58091B000A5
:1004300080628093B000C093B40026C084B5806809
:1004400084BDC7BD21C080918000806880938000FA
:10045000D0938900C093880017C08091800080628B
:1004600080938000D0938B00C0938A000DC0809150
:10047000B00080688093B000C093B30005C0C0385E
:10048000D10508F0B4CFAECFDF91CF911F910F917E
:10049000FF9008956E3008F06E506770606460934E
:1004A0007C0080917A00806480937A0080917A0049
:1004B00086FDFCCF809178002091790090E0922B0E
:1004C00008951F920F920FB60F9211242F933F930E
:1004D0008F939F93AF93BF9380916E0190916F0123
:1004E000A0917001B091710130916D0123E0230F53
:1004F0002D3720F40196A11DB11D05C026E8230F5C
:100500000296A11DB11D20936D0180936E01909301
:100510006F01A0937001B09371018091720190916D
:100520007301A0917401B09175010196A11DB11DD7
:100530008093720190937301A0937401B09375013D
:10054000BF91AF919F918F913F912F910F900FBECF
:100550000F901F9018951F920F920FB60F921124B3
:100560008F939F93EF93FF938091C0008C71E091E4
:100570007801EF5FEF7190917701E91749F0E0930F
:100580007801F0E09091C600E558FE4F908301C0DD
:1005900082E090917601892B80937601FF91EF9113
:1005A0009F918F910F900FBE0F901F9018951F92E3
:1005B0000F920FB60F9211248F939F93EF93FF9397
:1005C00090917A0180917901981769F0E091790111
:1005D000EF5FEF71E0937901F0E0E556FE4F808127
:1005E0008093C60005C08091C1008F7D8093C100BB
:1005F000FF91EF919F918F910F900FBE0F901F90E1
:100600001895089508950F931F93CF93DF93EC01EE
:10061000FB0120813181890120E030E0D901C8014E
:1006200080589B47A14EBF4FBC01CD0143E0660FF0
:10063000771F881F991F4A95D1F7A9019801E4E017
:10064000220F331F441F551FEA95D1F70E948D0FCB
:10065000215031093983288337FF03C082E080931A
:10066000C000898180788093C50088818093C40010
:1006700088E98093C10086E08093C200DF91CF912A
:100680001F910F91089580917A018F5F8F719091E2
:1006900079018917E1F3E82FF0E0E556FE4F60831A
:1006A00080937A018091C10080628093C100089597
:1006B0000F931F93CF93DF938C01EB016991662316
:1006C00021F0C8010E944303F9CFDF91CF911F9120
:1006D0000F910895CA010197FB01E40FF51FDB019B
:1006E0009D01261B370B2817390734F42C913291C2
:1006F0003D9320830197F4CF0895CF92DF92EF923C
:10070000FF920F931F93CF93DF937C01CB018A015C
:10071000FA014AE0C42ED12CEF01C01BD10B009787
:1007200039F0B6010E94790F805D8193CB01F4CF3F
:10073000F801EC0FFD1F80E3C217D3071CF42196CC
:100740008193FACFAE01B801C7010E946A03F80194
:10075000EC0FFD1F1082CE01DF91CF911F910F9101
:10076000FF90EF90DF90CF900895CF93DF93FC013F
:10077000D42FC52FB62FA72FA9016D2F7C2F8B2F1C
:100780009A2F97FF07C090958095709561957F4F40
:100790008F4F9F4F20E030E0CF01DF91CF910C943D
:1007A0007D030F931F93CF93DF93CDB7DEB7C05474
:1007B000D1090FB6F894DEBF0FBECDBF8C01AB01DF
:1007C00060E070E09E012F5F3F4F0E94B503BE01C5
:1007D0006F5F7F4FC8010E945803C05CDF4F0FB6A8
:1007E000F894DEBF0FBECDBFDF91CF911F910F9167
:1007F0000895EF92FF921F93CF93DF93CDB7DEB7AB
:10080000C054D1090FB6F894DEBF0FBECDBF7C0136
:10081000162F67FF03C06DE20E944303412F110FA3
:10082000550B660B770B9E012F5F3F4FC7010E9450
:10083000B503BE016F5F7F4FC7010E945803C05CC4
:10084000DF4F0FB6F894DEBF0FBECDBFDF91CF9163
:100850001F91FF90EF9008958BEB91E00C9499001D
:100860008BEB91E00C949A008DEB91E00C94990045
:100870008DEB91E00C949A0084EC91E00E94990039
:100880008FEB91E00C9401038FEB91E00E94020347
:1008900084EC91E00C949A00CF93DF93EC01FB0180
:1008A0008081888340E060818BEC91E00E944D0163
:1008B0001B82DF91CF910895AF92BF92CF92DF92CA
:1008C000EF92FF920F931F93FC0160818BEC91E0FC
:1008D0000E944A02BC0180E090E00E94CA1023E41A
:1008E0002F932FE72F931F921F92A12CB12C6501FC
:1008F000E12CF12C01E614E420E030E04AEF53E46F
:100900000E94980C0E949B100F900F900F900F90D8
:10091000862F90E01F910F91FF90EF90DF90CF9086
:10092000BF90AF900895CF92DF92EF92FF920F9316
:100930001F93CF93DF93EC010E945C042B81222351
:10094000E1F0BC0180E090E00E94CA106B017C01E4
:1009500000E010E09801AB01BC0189819A810E94FE
:10096000250500E010E09801B701A60189819A8170
:100970000E9425050E949B10CB01DF91CF911F9112
:100980000F91FF90EF90DF90CF9008958BEC91E066
:100990000E94990086EC91E00C94010386EC91E0B2
:1009A0000E9402038BEC91E00C949A008F929F922C
:1009B000AF92BF92CF92DF92EF92FF920F931F936D
:1009C000CF93DF93CDB7DEB7FC01408351836283C1
:1009D00073830483158326833783C086D186E2869A
:1009E000F38684869586A686B7868F859889A98999
:1009F000BA89808B918BA28BB38B148EDF91CF91B0
:100A00001F910F91FF90EF90DF90CF90BF90AF902C
:100A10009F908F900895CF93DF93EC01688579853F
:100A20008A859B859B01AC010E9458112C893D89C8
:100A30004E895F890E945811288139814A815B81E2
:100A40000E94B60FDF91CF9108954F925F926F92FF
:100A50007F928F929F92AF92BF92CF92DF92EF924E
:100A6000FF920F931F93CF93DF93CDB7DEB72A97F3
:100A70000FB6F894DEBF0FBECDBF9A878987498332
:100A80005A836B837C8328013901FC01848DC088E3
:100A9000D188E288F38881112DC0A701960160E01A
:100AA00070E080E89FE30E94221029813A814B8107
:100AB0005C810E945811E985FA85608F718F828F61
:100AC000938FA7019601C701B6010E9458119B019F
:100AD000AC01E985FA8564817581868197810E94E0
:100AE0002210E985FA85648B758B868B978B81E064
:100AF000848F7EC0E985FA852085318542855385BE
:100B0000608D718D828D938D0E9458114B015C0117
:100B1000E985FA852485358546855785C301B20167
:100B20000E9458119B01AC01C501B4010E94B60F8F
:100B30006D837E838F83988789859A850E940B05B4
:100B40004B015C01A70196010E9458112B013C0149
:100B5000A7019601C701B6010E945811A501940191
:100B60000E945811E985FA85248135814681578193
:100B70000E94B60F9B01AC01C301B2010E9422107A
:100B80002B013C012D813E814F815885C701B60163
:100B90000E9458119B01AC0169817A818B819C81F3
:100BA0000E94B50FA30192010E9458112D813E8130
:100BB0004F8158850E94B60FE985FA85608F718F45
:100BC000828F938FA3019201C701B6010E94581131
:100BD000A50194010E9458119B01AC01C501B4010B
:100BE0000E94B50FE985FA85648B758B868B978B90
:100BF000E985FA85608D718D828D938D2A960FB669
:100C0000F894DEBF0FBECDBFDF91CF911F910F9142
:100C1000FF90EF90DF90CF90BF90AF909F908F901C
:100C20007F906F905F904F900895CF93DF93FC017A
:100C3000D42FC22F60834183228341E08DEC91E069
:100C40000E944D0141E06D2F8DEC91E00E944D011D
:100C500041E06C2F8DEC91E0DF91CF910C944D0130
:100C6000FC016383462F50E060818DEC91E00C9491
:100C7000E501CF93DF93EC0140E06A818DEC91E0D8
:100C80000E94B00141E069818DEC91E0DF91CF914C
:100C90000C94B001CF93DF93EC0140E069818DECBF
:100CA00091E00E94B00141E06A818DEC91E0DF911A
:100CB000CF910C94B0018DEC91E00C9499008DECE7
:100CC00091E00C949A008EBD00000DB407FEFDCF9C
:100CD0008EB50895462F2CB52F7D2CBD2CB5237FC6
:100CE0002CBD2CB52C7F2CBD2DB521602DBDFC015C
:100CF00062818FEC91E00E94B001FAE1FA95F1F780
:100D000000C00895462FFC0160817181828193812A
:100D10006817790721F08FEC91E00C94B0010895E9
:100D200060E00C946A0661E00C946A061F93CF930E
:100D3000DF93EC01162F0E949006812F8F710E9485
:100D400063068FEF0E946306182FCE010E94930660
:100D5000812FDF91CF911F910895CF92DF92EF9273
:100D6000FF920F931F93CF93DF937C01162F6A019D
:100D7000C22F0E949006812F8F7180620E946306AD
:100D8000D82F8601CC2339F0F80181918F010E9480
:100D90006306C150F7CFC7010E9493068D2FDF91E4
:100DA000CF911F910F91FF90EF90DF90CF9008951A
:100DB0000F931F93CF93DF938C01C62FD42F0E94E4
:100DC00090068C2F8F7180620E946306C82F8D2F32
:100DD0000E946306C8010E9493068C2FDF91CF9179
:100DE0001F910F910895BF92CF92DF92EF92FF92E1
:100DF0000F931F93CF93DF938C01B62EC72EF22E45
:100E0000FC01C781DC2F4C1708F4D42FF801808532
:100E1000811102C0CD1B01C0C0E0C8010E94900634
:100E20008F2D0E946306D82EEB2CFC2CDD2339F08D
:100E3000F70181917F010E946306D150F7CFCC2347
:100E400029F080E00E946306C150F9CFC8010E94DA
:100E500093068D2DDF91CF911F910F91FF90EF9011
:100E6000DF90CF90BF900895BF92CF92DF92EF9224
:100E7000FF920F931F93CF93DF938C01B62EC72E53
:100E8000FC01C781DC2F4C1708F4D42FF8018085B2
:100E9000811102C0CD1B01C0C0E0C8010E949006B4
:100EA00081E60E946306D82EEB2CFC2CDD2341F05A
:100EB0008FEF0E946306F70181937F01D150F6CF37
:100EC000CC2329F08FEF0E946306C150F9CFC801EF
:100ED0000E9493068D2DDF91CF911F910F91FF906E
:100EE000EF90DF90CF90BF9008951F93CF93DF9343
:100EF000EC01162F0E949006812F0E946306182F86
:100F0000CE010E949306812FDF91CF911F9108950A
:100F100062EE0C94750761EE0C9475076FEF0C94FC
:100F20007507FC017183608353834283168280E2DC
:100F30008783108685E0868785E090E0A0E0B0E0BA
:100F4000848B958BA68BB78B118608956D3710F423
:100F5000462F01C04DE765E00C94D806CF93DF9390
:100F6000EC0160E00E9482068FE193E00197F1F7C7
:100F700000C000006DE1CE010E94960681FF09C00D
:100F80008FE193E00197F1F700C00000CE010E94CD
:100F90008B0760E0CE010E949606482F4E7F60E0EE
:100FA000CE010E94D80662E0CE010E949606E4E7D8
:100FB000F0E0E49141E050E001C0440FEA95EAF727
:100FC000482B62E0CE01DF91CF910C94D806CF93ED
:100FD000DF93EC0160E00E94960681FD0CC0482F73
:100FE000426060E0CE010E94D8068FE19EE4019746
:100FF000F1F700C00000DF91CF9108950F93CF93D8
:10100000DF93EC01211102C020EA01C020EBCE01E8
:101010000E94F306002339F061E0CE01DF91CF9109
:101020000F910C948206DF91CF910F9108950F9349
:10103000CF93DF93EC0101E00E94FE07CE010E94F6
:101040008E078073D9F360E0CE010E94820640E7EC
:1010500067E0CE010E94D80684FF05C0CE010E9441
:101060008B0780E001C081E0DF91CF910F9108955F
:1010700020E00C9417080F931F93CF93DF938C01FC
:10108000EB0167E10E94960680FD0BC0209759F0A6
:10109000C8010E948E0790E0959587958770888398
:1010A00002C080E001C081E0DF91CF911F910F91DC
:1010B000089560E070E00C943B08CF93DF93EC015F
:1010C0000E94340740E767E0CE01DF91CF910C9496
:1010D000D8060F931F93CF93DF93EC018B012E85DE
:1010E000AB016AE00E94AD062E85A80160E1CE0149
:1010F0000E94AD064F8161E1CE01DF91CF911F913A
:101100000F910C94D806EF92FF920F931F93CF93F9
:10111000DF938C01C62F7A01611108C0FC0146855E
:1011200050E0B70109960E94E61205C0673008F04A
:1011300037C0613041F4EC2FF0E0E259FF4F649189
:10114000F801268506C0E62FF0E0E259FF4F6491D2
:1011500021E0A701C8010E94AD06D0E0FE01E859D8
:10116000FF4F6491F8014781C8010E94D80662E0F0
:10117000C8010E949606FE01EC58FF4FE49141E041
:1011800050E001C0440FEA95EAF7482B62E0C8013D
:10119000DF91CF911F910F91FF90EF900C94D806A3
:1011A000DF91CF911F910F91FF90EF9008950F93D2
:1011B0001F93CF938C01C62F62E00E949606EC2FFE
:1011C000F0E0EC58FF4FE49121E030E001C0220F45
:1011D000EA95EAF72095422F482362E0C801CF91B3
:1011E0001F910F910C94D806CF93DF93EC0160E030
:1011F0000E949606482F416060E0CE010E94D8060A
:1012000040E767E0CE010E94D80661E0CE010E946F
:1012100082068985882349F02E85AE01475F5F4F9E
:101220006AE0CE010E94AD0604C060E0CE010E94DB
:10123000D7086DE1CE010E94960681FF05C0CE0160
:10124000DF91CF910C948B07DF91CF910895CF93CD
:10125000DF93EC010E94900680E50E94630683E71D
:101260000E946306CE01DF91CF910C9493060F93F9
:101270001F93CF93DF938C01D62F66E00E949606D2
:10128000C82FC77DD23031F4C0628BE990E0A0E076
:10129000B0E00CC0D13029F085E590E0A0E0B0E0EE
:1012A00005C0C86081E490E0A0E0B0E0F801808B68
:1012B000918BA28BB38B4C2F66E0C8010E94D8069D
:1012C00066E0C8010E94960691E0C81390E0892F5D
:1012D000DF91CF911F910F9108951F93CF93DF93CB
:1012E000EC01688179818A819B816817790729F0EF
:1012F00041E08FEC91E00E944D016A817B81888101
:1013000099818617970729F041E08FEC91E00E94C0
:101310004D010E94E60A60E0CE010E94820661E073
:10132000CE010E946A068FE19EE40197F1F700C0AA
:1013300000004CE060E0CE010E94D8064FE564E07A
:10134000CE010E94D80662E0CE010E9437098823B0
:1013500011F081E08E8366E0CE010E949606182F80
:1013600060E0CE010E943709CE010E94270940E0CB
:101370006DE1CE010E94D80640E06CE1CE010E94F2
:10138000D806188640E767E0CE010E94D8066CE4D4
:10139000CE010E94A607CE010E948807CE010E94BE
:1013A0008B07CE010E94E70760E0CE010E949606FF
:1013B000482F4E7F60E0CE010E94D806115081E098
:1013C0001E3F08F080E0DF91CF911F9108958FECD0
:1013D00091E00C9499008FEC91E00C949A0081EDCF
:1013E00091E00C94990081ED91E00C949A00FC013D
:1013F000608370E07093D6016093D50108950895DD
:101400001092800082E080938100109285001092FB
:101410008400B19AEFE6F0E08081826080830895D5
:10142000AF92BF92CF92DF92EF92FF920F931F93F2
:1014300077FD06C0653B71052CF064EB70E002C0DF
:1014400060E070E0072E000C880B990B0E94CC1016
:1014500025E42F9326E12F931F921F92A12CB12CEC
:1014600026E1C22E24E4D22EE12CF12C04E313E475
:1014700020E030E0A9010E94980C0E9494102FB740
:10148000F894CB01770FAA0BBB0B44E0880F991F90
:10149000AA1FBB1F4A95D1F753E0B695A79597951C
:1014A00087955A95D1F79093D8018093D7012FBF94
:1014B0000F900F900F900F901F910F91FF90EF9052
:1014C000DF90CF90BF90AF9008951F920F920FB60C
:1014D0000F9211242F933F934F935F936F937F93BA
:1014E0008F939F93AF93BF93EF93FF936091D50139
:1014F0007091D60140E08AED91E00E94B0016091C8
:10150000D5017091D60141E08AED91E00E94B001D1
:1015100020918400309185008091D7019091D8016D
:10152000820F931F90938900809388008091880098
:10153000909189006AE070E00E94650F892B19F58F
:101540008091D401882321F08091D3018F5F03C063
:101550008091D30181508093D3018091D301843154
:1015600011F41092D4018091D301811103C081E064
:101570008093D4016091D30170E0665A7F4F89ED6A
:1015800091E00E94100AFF91EF91BF91AF919F915E
:101590008F917F916F915F914F913F912F910F901C
:1015A0000FBE0F901F9018958AED91E00E94990050
:1015B00083E08093D90183E090E09093D6018093FB
:1015C000D50108958AED91E00C949A001F93CF9372
:1015D000DF93CFB7F8948091DC01811133C06AE0CA
:1015E0008DED91E00E940F01182F6AE08DED91E0E2
:1015F0000E942001D82F612F8DED91E00E94D9002B
:10160000FC0180818D2331F441E06AE08DED91E0B1
:101610000E94B00141E06AE08DED91E00E944D0131
:101620008CB580618CBD8CB580648CBD41E06DE073
:101630008DED91E00E944D0141E06BE08DED91E078
:101640000E944D018091DC018F5F8093DC01CFBF50
:10165000DF91CF911F9108958DED91E00C94990049
:101660008DED91E00C949A000F931F93CF93DF932D
:10167000EC018A01FB0180818883FA0180818983E2
:1016800041E0FB0160818FED91E00E944D0140E05F
:10169000F80160818FED91E00E944D011C82DF9185
:1016A000CF911F910F9108956F927F928F929F9289
:1016B000AF92BF92CF92DF92EF92FF920F931F9360
:1016C000CF93DF93EC0181E08C838DE190E00E9469
:1016D000F50C3C018FE38F9380E88F931F921F924C
:1016E000812C912C80E8A82E8FE3B82E750164011F
:1016F00095018401B501A401C3010E94D6047B8237
:101700006A820F900F900F900F90DF91CF911F91F1
:101710000F91FF90EF90DF90CF90BF90AF909F9090
:101720008F907F906F9008958F929F92AF92BF920B
:10173000EF92FF920F931F93FB01522F20812423DE
:1017400025130DC081E0E81AF10801091109B1F76C
:101750001BC081E0E81AF10801091109A9F02081F4
:1017600024235213F6CF812C912C540160816423E1
:1017700056130FC08FEF881A980AA80AB80AE814FF
:10178000F9040A051B0591F760E070E080E090E045
:1017900002C0B401C5011F910F91FF90EF90BF905F
:1017A000AF909F908F9008959F92AF92BF92CF92EB
:1017B000DF92EF92FF920F931F93CF93DF93EC0191
:1017C000A62E942E680179018FED91E00E942001F0
:1017D000B82E6A2D8FED91E00E940F01992011F033
:1017E000AB2C01C0A12C682F8FED91E00E94FD0071
:1017F0008701760120EFE2222A2D4B2DBC01CE017C
:101800000E94940B611571058105910549F0DC0179
:10181000CB010196A11DB11DBC01CD019F7003C07C
:1018200060E070E0CB01DF91CF911F910F91FF90AD
:10183000EF90DF90CF90BF90AF909F9008950F935F
:101840001F93CF93DF93EC0141E068818FED91E02E
:101850000E94B0018FEC97E00197F1F700C0000003
:1018600040E068818FED91E00E94B00100E412E455
:101870002FE030E041E06981CE010E94D40B9B0152
:1018800077FF02C02F5F3F4FB90175956795072E0F
:10189000000C880B990B0E94CC102DEC3CEC48EE10
:1018A00051E40E9422100E949B10CB01DF91CF9146
:1018B0001F910F910895CF92DF92EF92FF920F93B5
:1018C0001F93CF93DF93EC010E941F0C2C812223E6
:1018D000F1F0BC0180E090E00E94CA106B017C0135
:1018E00000E010E020E83FE3AB01BC018A819B816E
:1018F0000E94250500E010E020E83FE3B701A601C3
:101900008A819B810E9425050E949B10CB01DF915B
:10191000CF911F910F91FF90EF90DF90CF9008959E
:101920008FED91E00C9499008FED91E00C949A006A
:101930004F925F926F927F92AF92BF92CF92DF925F
:10194000EF92FF920F931F93CF93DF93CDB7DEB744
:1019500028970FB6F894DEBF0FBECDBF29013A011C
:10196000ED82FE820F8318870E94B50F69837A8308
:101970008B839C83A6019501698D7A8D8B8D9C8DBF
:101980000E94B50F9B01AC0169817A818B819C819A
:101990000E94581169837A838B839C83A3019201EF
:1019A000C801B7010E94B50F9B01AC0169817A8122
:1019B0008B819C810E942210A60195010E94B60F86
:1019C00028960FB6F894DEBF0FBECDBFDF91CF9142
:1019D0001F910F91FF90EF90DF90CF90BF90AF904D
:1019E0007F906F905F904F9008950C94C511CF93A6
:1019F000DF93CDB7DEB7C054D1090FB6F894DEBF80
:101A00000FBECDBF87EE91E00E949B0080E09BE47B
:101A10009A838983BE016F5F7F4F82EE91E00E94BF
:101A200003034AE050E069E070E0CE0101960E94B5
:101A300091078CE0E6E0F1E0DE01599601900D920D
:101A40008A95E1F7CE0101960E946D09BE01615EA3
:101A50007F4FCE0101960E946908AE01475E5F4F3D
:101A600061E0CE0101960E948308CE0101960E949A
:101A7000F40881E021968FAF219780E18DA3BE010C
:101A80006B5D7F4FCE01CA960E944C048FE08DA300
:101A9000BE016B5D7F4FCE01C6960E944C048EE066
:101AA0008DA3BE016B5D7F4FCE01C2960E944C0498
:101AB00082E18AA783E18EA74E012AE2820E911C61
:101AC0003E018EE2680E711CA401B301CE01859621
:101AD0000E94340B28E047E066E0C3010E9415062F
:101AE00024E042E065E0C4010E94150681EE91E029
:101AF0000E94000A64E670E081EE91E00E94100A04
:101B0000CE0185960E94540B60E0C3010E9430060E
:101B100060E0C4010E943006CE01C2960E94930488
:101B2000BC0182EE91E00E94D10362E171E082EE9D
:101B300091E00E945803CE0185960E945B0C7C01C7
:101B4000CE01CA960E949304CE01C6960E949304C9
:101B5000CE01C2960E94930465E171E082EE91E0AD
:101B60000E945803CE0185960E945B0CBC0182EE58
:101B700091E00E94D10362E171E082EE91E00E9467
:101B800058039EE1E916F10410F5CE0101960E947A
:101B9000AE0765E271E082EE91E00E94580362E1D7
:101BA00071E082EE91E00E94580341E0BE01605C6A
:101BB0007F4FCE0101960E943808CE0101960E9407
:101BC000F4088FE39CE90197F1F700C00000CE0113
:101BD00001960E945908882309F49ECF42E0BE0175
:101BE000625C7F4FCE0101960E945D088EAD882316
:101BF00029F18FAD882311F16EE271E082EE91E060
:101C00000E9458036EAD82EE91E00E94F90362E1FA
:101C100071E082EE91E00E9458036BE371E082EE86
:101C200091E00E9458036FAD82EE91E00E94F903AB
:101C300062E171E082EE91E00E9458038EAD8C3E2D
:101C40000CF053C0682F880F770B880B990B0E94FC
:101C5000CC1023E42F932FE72F931F921F92A12CD8
:101C6000B12C6501E12CF12C00EA12E420E030E017
:101C700040EA51E40E94980C1B012C016EAD062E27
:101C8000000C770B880B990B0E94CC1023E42F9348
:101C90002FE72F931F921F9220E030E040EA51E49B
:101CA0000E94980C6B017C01C201B1010E949B1043
:101CB000C3010E943006C701B6010E949B10C401F7
:101CC0000E94300668E471E082EE91E00E945803C1
:101CD00062E171E082EE91E00E945803C3010E942C
:101CE0003906C4010E94390655C085310CF458C02C
:101CF000682F880F770B880B990B0E94CC1023E478
:101D00002F932FE72F931F921F92A12CB12C6501C7
:101D1000E12CF12C00EA12EC20E030E040EA51EC3A
:101D20000E94980C1B012C016EAD062E000C770B47
:101D3000880B990B0E94CC1023E42F932FE72F934D
:101D40001F921F9220E030E040EA51EC0E94980C74
:101D50006B017C01C201B1010E949B10C3010E9472
:101D60003006C701B6010E949B10C4010E943006D4
:101D7000C3010E944A06C4010E944A0660E571E060
:101D800082EE91E00E94580362E171E082EE91E000
:101D90000E9458030FB6F894DEBF0FBECDBFBCCE75
:101DA0006FAD653164F1062E000C770B880B990B33
:101DB0000E94CC1023E42F932FE72F931F921F92A2
:101DC000A12CB12C6501E12CF12C00EA12EC20E0F1
:101DD00030E040EA51EC0E94980C0E949B10C30135
:101DE0000E94300660E0C4010E943006C3010E94D8
:101DF0003906C4010E94390669E571E031C06C3EC4
:101E0000F4F5062E000C770B880B990B0E94CC1072
:101E100023E42F932FE72F931F921F92A12CB12C15
:101E20006501E12CF12C00EA12EC20E030E040EA00
:101E300051EC0E94980C6B017C0160E0C3010E9490
:101E40003006C701B6010E949B10C4010E943006F3
:101E5000C3010E943906C4010E9439066FE571E092
:101E600082EE91E00E94580362E171E082EE91E01F
:101E70000E9458030F900F900F900F904DCE882323
:101E800009F44ACE662309F447CE60E0C3010E94FC
:101E9000300660E0C4013ECE87EE91E00E949900DA
:101EA00082EE91E00E94010363E081EE91E00C94E8
:101EB000F70981EE91E00E94FF0982EE91E00E9415
:101EC000020387EE91E00C949A00AA1BBB1B51E120
:101ED00007C0AA1FBB1FA617B70710F0A61BB70B9A
:101EE000881F991F5A95A9F780959095BC01CD013F
:101EF000089597FB072E16F4009407D077FD09D0BC
:101F00000E94650F07FC05D03EF4909581959F4F88
:101F10000895709561957F4F0895A1E21A2EAA1B2E
:101F2000BB1BFD010DC0AA1FBB1FEE1FFF1FA21789
:101F3000B307E407F50720F0A21BB30BE40BF50B86
:101F4000661F771F881F991F1A9469F7609570950F
:101F5000809590959B01AC01BD01CF010895EE0FD6
:101F6000FF1F0590F491E02D09945058BB27AA2734
:101F70000E94CD0F0C941E110E94101138F00E9487
:101F8000171120F039F49F3F19F426F40C940D1129
:101F90000EF4E095E7FB0C940711E92F0E942F1136
:101FA00058F3BA17620773078407950720F079F48E
:101FB000A6F50C9451110EF4E0950B2EBA2FA02D1E
:101FC0000B01B90190010C01CA01A0011124FF27E6
:101FD000591B99F0593F50F4503E68F11A16F040E1
:101FE000A22F232F342F4427585FF3CF46953795E0
:101FF0002795A795F0405395C9F77EF41F16BA0BA5
:10200000620B730B840BBAF09150A1F0FF0FBB1F52
:10201000661F771F881FC2F70EC0BA0F621F731F9B
:10202000841F48F4879577956795B795F7959E3FF8
:1020300008F0B0CF9395880F08F09927EE0F979589
:10204000879508950E9436100C941E110E94171156
:1020500058F00E94101140F029F45F3F29F00C94D1
:10206000071151110C9452110C940D110E942F1153
:1020700068F39923B1F3552391F3951B550BBB27B7
:10208000AA2762177307840738F09F5F5F4F220FFC
:10209000331F441FAA1FA9F335D00E2E3AF0E0E8F3
:1020A00032D091505040E695001CCAF72BD0FE2F3D
:1020B00029D0660F771F881FBB1F261737074807D1
:1020C000AB07B0E809F0BB0B802DBF01FF27935889
:1020D0005F4F3AF09E3F510578F00C9407110C9435
:1020E00052115F3FE4F3983ED4F386957795679558
:1020F000B795F7959F5FC9F7880F911D96958795BE
:1021000097F90895E1E0660F771F881FBB1F6217DC
:1021100073078407BA0720F0621B730B840BBA0B9A
:10212000EE1F88F7E09508950E949B106894B11106
:102130000C94521108950E94371188F09F5798F01F
:10214000B92F9927B751B0F0E1F0660F771F881FBC
:10215000991F1AF0BA95C9F714C0B13091F00E94D6
:102160005111B1E008950C945111672F782F8827F1
:10217000B85F39F0B93FCCF3869577956795B395FD
:10218000D9F73EF490958095709561957F4F8F4F6C
:102190009F4F0895E89409C097FB3EF49095809571
:1021A000709561957F4F8F4F9F4F9923A9F0F92F1D
:1021B00096E9BB279395F695879577956795B7959B
:1021C000F111F8CFFAF4BB0F11F460FF1BC06F5F81
:1021D0007F4F8F4F9F4F16C0882311F096E911C093
:1021E000772321F09EE8872F762F05C0662371F0B4
:1021F00096E8862F70E060E02AF09A95660F771FC8
:10220000881FDAF7880F9695879597F9089597F9BB
:102210009F6780E870E060E008959FEF80EC08958C
:1022200000240A94161617061806090608950024B5
:102230000A9412161306140605060895092E03942F
:10224000000C11F4882352F0BB0F40F4BF2B11F4A3
:1022500060FF04C06F5F7F4F8F4F9F4F089557FD02
:102260009058440F551F59F05F3F71F04795880F04
:1022700097FB991F61F09F3F79F08795089512169B
:1022800013061406551FF2CF4695F1DF08C0161647
:1022900017061806991FF1CF8695710561050894F8
:1022A0000895E894BB2766277727CB0197F908950F
:1022B0000E946B110C941E110E94101138F00E94A4
:1022C000171120F0952311F00C9407110C940D11A7
:1022D00011240C9452110E942F1170F3959FC1F399
:1022E000950F50E0551F629FF001729FBB27F00DC4
:1022F000B11D639FAA27F00DB11DAA1F649F662719
:10230000B00DA11D661F829F2227B00DA11D621F67
:10231000739FB00DA11D621F839FA00D611D221F21
:10232000749F3327A00D611D231F849F600D211D05
:10233000822F762F6A2F11249F5750409AF0F1F088
:1023400088234AF0EE0FFF1FBB1F661F771F881FF1
:1023500091505040A9F79E3F510580F00C94071111
:102360000C9452115F3FE4F3983ED4F38695779531
:102370006795B795F795E7959F5FC1F7FE2B880F97
:10238000911D9695879597F908950F931F93CF9375
:10239000DF938230910510F482E090E0E091EB0150
:1023A000F091EC0120E030E0A0E0B0E0309719F1CE
:1023B000408151810281138148175907C8F0841761
:1023C000950769F4109731F012960C9312971396B3
:1023D0001C9327C00093EB011093EC0122C0211540
:1023E000310519F04217530718F49A01BD01EF01A6
:1023F000DF01F801DBCF21153105F9F0281B390B7E
:102400002430310580F48A819B816115710521F0AA
:10241000FB019383828304C09093EC018093EB01D2
:10242000FE01329644C0FE01E20FF31F81939193A7
:1024300022503109398328833AC02091E901309133
:10244000EA01232B41F420910201309103013093E2
:10245000EA012093E9012091000130910101211549
:10246000310541F42DB73EB740910401509105016B
:10247000241B350BE091E901F091EA01E217F30723
:10248000A0F42E1B3F0B2817390778F0AC014E5FE4
:102490005F4F2417350748F04E0F5F1F5093EA0136
:1024A0004093E9018193919302C0E0E0F0E0CF0115
:1024B000DF91CF911F910F910895CF93DF930097F4
:1024C00009F481C0FC01329713821282A091EB01C2
:1024D000B091EC01109781F420813181820F931F1C
:1024E0002091E9013091EA012817390751F5F0935D
:1024F000EA01E093E90167C0ED0120E030E0CE178A
:10250000DF0740F44A815B819E0141155105F1F0DE
:10251000EA01F5CFD383C28340815181840F951F97
:10252000C817D90759F488819981840F951F02969D
:10253000918380838A819B819383828321153105D6
:1025400029F4F093EC01E093EB013DC0E901FB833A
:10255000EA8349915991C40FD51FEC17FD0761F427
:1025600080819181840F951F0296E9019983888368
:10257000828193819B838A83E0E0F0E012968D91C3
:102580009C911397009719F0FD01DC01F7CF8D9115
:102590009C9111979D012E5F3F4F820F931F2091B9
:1025A000E9013091EA012817390769F4309729F4D5
:1025B0001092EC011092EB0102C013821282B093D0
:1025C000EA01A093E901DF91CF910895FB01DC01BD
:1025D00002C001900D9241505040D8F7089510E08C
:1025E000CAE4D0E004C0FE010E94AF0F2196C735B7
:0825F000D107C9F7F894FFCFF1
:1025F8000000ED012000536D61727400526F626F2C
:1026080074000D0A006F62737461636C655F6672B3
:102618006F6E743A006465746563746564007278FB
:102628005F6275666665725B305D0072785F6275C1
:10263800666665725B315D00666F72776172640011
:102648006261636B77617264007269676874006CB9
:04265800656674003F
:00000001FF
